{
    "contractName": "SimpleStorage",
    "abi": [
        {
            "inputs": [
                {
                    "internalType": "string",
                    "name": "_name",
                    "type": "string"
                },
                {
                    "internalType": "uint256",
                    "name": "_favoriteNumber",
                    "type": "uint256"
                }
            ],
            "name": "addNewPeople",
            "outputs": [],
            "stateMutability": "nonpayable",
            "type": "function"
        },
        {
            "inputs": [
                {
                    "internalType": "uint256",
                    "name": "",
                    "type": "uint256"
                }
            ],
            "name": "listOfPeople",
            "outputs": [
                {
                    "internalType": "string",
                    "name": "name",
                    "type": "string"
                },
                {
                    "internalType": "uint256",
                    "name": "favoriteNumber",
                    "type": "uint256"
                }
            ],
            "stateMutability": "view",
            "type": "function"
        },
        {
            "inputs": [
                {
                    "internalType": "string",
                    "name": "",
                    "type": "string"
                }
            ],
            "name": "nameToFavoriteNumber",
            "outputs": [
                {
                    "internalType": "uint256",
                    "name": "",
                    "type": "uint256"
                }
            ],
            "stateMutability": "view",
            "type": "function"
        },
        {
            "inputs": [],
            "name": "retrieve",
            "outputs": [
                {
                    "internalType": "uint256",
                    "name": "",
                    "type": "uint256"
                }
            ],
            "stateMutability": "view",
            "type": "function"
        },
        {
            "inputs": [
                {
                    "internalType": "uint256",
                    "name": "_favoriteNumber",
                    "type": "uint256"
                }
            ],
            "name": "store",
            "outputs": [],
            "stateMutability": "nonpayable",
            "type": "function"
        }
    ],
    "bytecode": "608060405234801561001057600080fd5b50610566806100206000396000f3fe608060405234801561001057600080fd5b50600436106100575760003560e01c80632e64cec11461005c5780632ebce631146100735780636057361d146100945780638bab8dd5146100a9578063cce919e8146100d4575b600080fd5b6000545b6040519081526020015b60405180910390f35b61008661008136600461022e565b6100e7565b60405161006a92919061026b565b6100a76100a236600461022e565b600055565b005b6100606100b7366004610349565b805160208183018101805160028252928201919093012091525481565b6100a76100e2366004610386565b6101a3565b600181815481106100f757600080fd5b906000526020600020906002020160009150905080600001805461011a906103cb565b80601f0160208091040260200160405190810160405280929190818152602001828054610146906103cb565b80156101935780601f1061016857610100808354040283529160200191610193565b820191906000526020600020905b81548152906001019060200180831161017657829003601f168201915b5050505050908060010154905082565b6040805180820190915282815260208101829052600180548082018255600091909152815160029091027fb10e2d527612073b26eecdfd717e6a320cf44b4afac2b0732d9fcbe2b7fa0cf6019081906101fc9082610454565b506020820151816001015550508060028360405161021a9190610514565b908152604051908190036020019020555050565b60006020828403121561024057600080fd5b5035919050565b60005b8381101561026257818101518382015260200161024a565b50506000910152565b604081526000835180604084015261028a816060850160208801610247565b602083019390935250601f91909101601f191601606001919050565b634e487b7160e01b600052604160045260246000fd5b600082601f8301126102cd57600080fd5b813567ffffffffffffffff808211156102e8576102e86102a6565b604051601f8301601f19908116603f01168101908282118183101715610310576103106102a6565b8160405283815286602085880101111561032957600080fd5b836020870160208301376000602085830101528094505050505092915050565b60006020828403121561035b57600080fd5b813567ffffffffffffffff81111561037257600080fd5b61037e848285016102bc565b949350505050565b6000806040838503121561039957600080fd5b823567ffffffffffffffff8111156103b057600080fd5b6103bc858286016102bc565b95602094909401359450505050565b600181811c908216806103df57607f821691505b6020821081036103ff57634e487b7160e01b600052602260045260246000fd5b50919050565b601f82111561044f57600081815260208120601f850160051c8101602086101561042c5750805b601f850160051c820191505b8181101561044b57828155600101610438565b5050505b505050565b815167ffffffffffffffff81111561046e5761046e6102a6565b6104828161047c84546103cb565b84610405565b602080601f8311600181146104b7576000841561049f5750858301515b600019600386901b1c1916600185901b17855561044b565b600085815260208120601f198616915b828110156104e6578886015182559484019460019091019084016104c7565b50858210156105045787850151600019600388901b60f8161c191681555b5050505050600190811b01905550565b60008251610526818460208701610247565b919091019291505056fea26469706673582212207ba1950b292881aa6df120d1739f943ece04b06f2f12b9bbc8b31d72665d550764736f6c63430008130033",
    "sourcePath": "/home/kuusho/solpractice/Solidity/SimpleStorage.sol",
    "compiler": {
        "name": "solc",
        "version": "0.8.19+commit.7dd6d404"
    },
    "functionHashes": {
        "addNewPeople(string,uint256)": "cce919e8",
        "listOfPeople(uint256)": "2ebce631",
        "nameToFavoriteNumber(string)": "8bab8dd5",
        "retrieve()": "2e64cec1",
        "store(uint256)": "6057361d"
    },
    "gasEstimates": {
        "creation": {
            "codeDepositCost": "276400",
            "executionCost": "318",
            "totalCost": "276718"
        },
        "external": {
            "addNewPeople(string,uint256)": "infinite",
            "listOfPeople(uint256)": "infinite",
            "nameToFavoriteNumber(string)": "infinite",
            "retrieve()": "2248",
            "store(uint256)": "22334"
        }
    }
}